{
  "contractName": "CertificadosContract",
  "abi": [
    {
      "inputs": [],
      "stateMutability": "nonpayable",
      "type": "constructor"
    },
    {
      "inputs": [],
      "name": "certificadoCounter",
      "outputs": [
        {
          "internalType": "uint256",
          "name": "",
          "type": "uint256"
        }
      ],
      "stateMutability": "view",
      "type": "function",
      "constant": true
    },
    {
      "inputs": [
        {
          "internalType": "uint256",
          "name": "",
          "type": "uint256"
        }
      ],
      "name": "certificados",
      "outputs": [
        {
          "internalType": "uint256",
          "name": "id",
          "type": "uint256"
        },
        {
          "internalType": "string",
          "name": "ap_materno",
          "type": "string"
        },
        {
          "internalType": "string",
          "name": "ap_paterno",
          "type": "string"
        },
        {
          "internalType": "string",
          "name": "dni",
          "type": "string"
        },
        {
          "internalType": "string",
          "name": "nombres",
          "type": "string"
        },
        {
          "internalType": "string",
          "name": "nomb_curso",
          "type": "string"
        },
        {
          "internalType": "string",
          "name": "nota",
          "type": "string"
        },
        {
          "internalType": "string",
          "name": "institucion",
          "type": "string"
        },
        {
          "internalType": "string",
          "name": "link",
          "type": "string"
        },
        {
          "internalType": "string",
          "name": "hash_image",
          "type": "string"
        },
        {
          "internalType": "string",
          "name": "condicion",
          "type": "string"
        },
        {
          "internalType": "string",
          "name": "fecha_inicio_fin",
          "type": "string"
        }
      ],
      "stateMutability": "view",
      "type": "function",
      "constant": true
    },
    {
      "inputs": [
        {
          "internalType": "string",
          "name": "_ap_materno",
          "type": "string"
        },
        {
          "internalType": "string",
          "name": "_ap_paterno",
          "type": "string"
        },
        {
          "internalType": "string",
          "name": "_dni",
          "type": "string"
        },
        {
          "internalType": "string",
          "name": "_nombres",
          "type": "string"
        },
        {
          "internalType": "string",
          "name": "_nomb_curso",
          "type": "string"
        },
        {
          "internalType": "string",
          "name": "_nota",
          "type": "string"
        },
        {
          "internalType": "string",
          "name": "_institucion",
          "type": "string"
        },
        {
          "internalType": "string",
          "name": "_link",
          "type": "string"
        },
        {
          "internalType": "string",
          "name": "_hash_image",
          "type": "string"
        },
        {
          "internalType": "string",
          "name": "_condicion",
          "type": "string"
        },
        {
          "internalType": "string",
          "name": "_fecha_inicio_fin",
          "type": "string"
        }
      ],
      "name": "createCertificado",
      "outputs": [],
      "stateMutability": "nonpayable",
      "type": "function"
    }
  ],
  "bytecode": "0x6080604052600080553480156200001557600080fd5b506200022c6040518060400160405280600681526020017f48756179746100000000000000000000000000000000000000000000000000008152506040518060400160405280600881526020017f477565727265726f0000000000000000000000000000000000000000000000008152506040518060400160405280600881526020017f37333137363839380000000000000000000000000000000000000000000000008152506040518060400160405280600581526020017f52656e7a6f0000000000000000000000000000000000000000000000000000008152506040518060400160405280600681526020017f507974686f6e00000000000000000000000000000000000000000000000000008152506040518060400160405280600281526020017f31350000000000000000000000000000000000000000000000000000000000008152506040518060400160405280600c81526020017f53697374656d617320554e49000000000000000000000000000000000000000081525060405180602001604052806000815250604051806020016040528060008152506040518060400160405280600881526020017f4150524f4241444f0000000000000000000000000000000000000000000000008152506040518060400160405280601581526020017f31312f33302f323032312d31322f31312f3230323100000000000000000000008152506200023260201b60201c565b620005c2565b600080815480929190620002469062000516565b919050555060405180610180016040528060005481526020018c81526020018b81526020018a8152602001898152602001888152602001878152602001868152602001858152602001848152602001838152602001828152506001600080548152602001908152602001600020600082015181600001556020820151816001019080519060200190620002db92919062000426565b506040820151816002019080519060200190620002fa92919062000426565b5060608201518160030190805190602001906200031992919062000426565b5060808201518160040190805190602001906200033892919062000426565b5060a08201518160050190805190602001906200035792919062000426565b5060c08201518160060190805190602001906200037692919062000426565b5060e08201518160070190805190602001906200039592919062000426565b50610100820151816008019080519060200190620003b592919062000426565b50610120820151816009019080519060200190620003d592919062000426565b5061014082015181600a019080519060200190620003f592919062000426565b5061016082015181600b0190805190602001906200041592919062000426565b509050505050505050505050505050565b8280546200043490620004e0565b90600052602060002090601f016020900481019282620004585760008555620004a4565b82601f106200047357805160ff1916838001178555620004a4565b82800160010185558215620004a4579182015b82811115620004a357825182559160200191906001019062000486565b5b509050620004b39190620004b7565b5090565b5b80821115620004d2576000816000905550600101620004b8565b5090565b6000819050919050565b60006002820490506001821680620004f957607f821691505b6020821081141562000510576200050f62000593565b5b50919050565b60006200052382620004d6565b91507fffffffffffffffffffffffffffffffffffffffffffffffffffffffffffffffff82141562000559576200055862000564565b5b600182019050919050565b7f4e487b7100000000000000000000000000000000000000000000000000000000600052601160045260246000fd5b7f4e487b7100000000000000000000000000000000000000000000000000000000600052602260045260246000fd5b61102580620005d26000396000f3fe608060405234801561001057600080fd5b50600436106100415760003560e01c80637b2178ee146100465780638e59bb4814610062578063b9b00b6f1461009d575b600080fd5b610060600480360381019061005b91906109fd565b6100bb565b005b61007c60048036038101906100779190610c25565b610297565b6040516100949c9b9a99989796959493929190610cb5565b60405180910390f35b6100a56108cf565b6040516100b29190610c9a565b60405180910390f35b6000808154809291906100cd90610edd565b919050555060405180610180016040528060005481526020018c81526020018b81526020018a81526020018981526020018881526020018781526020018681526020018581526020018481526020018381526020018281525060016000805481526020019081526020016000206000820151816000015560208201518160010190805190602001906101609291906108d5565b50604082015181600201908051906020019061017d9291906108d5565b50606082015181600301908051906020019061019a9291906108d5565b5060808201518160040190805190602001906101b79291906108d5565b5060a08201518160050190805190602001906101d49291906108d5565b5060c08201518160060190805190602001906101f19291906108d5565b5060e082015181600701908051906020019061020e9291906108d5565b5061010082015181600801908051906020019061022c9291906108d5565b5061012082015181600901908051906020019061024a9291906108d5565b5061014082015181600a0190805190602001906102689291906108d5565b5061016082015181600b0190805190602001906102869291906108d5565b509050505050505050505050505050565b60016020528060005260406000206000915090508060000154908060010180546102c090610e7a565b80601f01602080910402602001604051908101604052809291908181526020018280546102ec90610e7a565b80156103395780601f1061030e57610100808354040283529160200191610339565b820191906000526020600020905b81548152906001019060200180831161031c57829003601f168201915b50505050509080600201805461034e90610e7a565b80601f016020809104026020016040519081016040528092919081815260200182805461037a90610e7a565b80156103c75780601f1061039c576101008083540402835291602001916103c7565b820191906000526020600020905b8154815290600101906020018083116103aa57829003601f168201915b5050505050908060030180546103dc90610e7a565b80601f016020809104026020016040519081016040528092919081815260200182805461040890610e7a565b80156104555780601f1061042a57610100808354040283529160200191610455565b820191906000526020600020905b81548152906001019060200180831161043857829003601f168201915b50505050509080600401805461046a90610e7a565b80601f016020809104026020016040519081016040528092919081815260200182805461049690610e7a565b80156104e35780601f106104b8576101008083540402835291602001916104e3565b820191906000526020600020905b8154815290600101906020018083116104c657829003601f168201915b5050505050908060050180546104f890610e7a565b80601f016020809104026020016040519081016040528092919081815260200182805461052490610e7a565b80156105715780601f1061054657610100808354040283529160200191610571565b820191906000526020600020905b81548152906001019060200180831161055457829003601f168201915b50505050509080600601805461058690610e7a565b80601f01602080910402602001604051908101604052809291908181526020018280546105b290610e7a565b80156105ff5780601f106105d4576101008083540402835291602001916105ff565b820191906000526020600020905b8154815290600101906020018083116105e257829003601f168201915b50505050509080600701805461061490610e7a565b80601f016020809104026020016040519081016040528092919081815260200182805461064090610e7a565b801561068d5780601f106106625761010080835404028352916020019161068d565b820191906000526020600020905b81548152906001019060200180831161067057829003601f168201915b5050505050908060080180546106a290610e7a565b80601f01602080910402602001604051908101604052809291908181526020018280546106ce90610e7a565b801561071b5780601f106106f05761010080835404028352916020019161071b565b820191906000526020600020905b8154815290600101906020018083116106fe57829003601f168201915b50505050509080600901805461073090610e7a565b80601f016020809104026020016040519081016040528092919081815260200182805461075c90610e7a565b80156107a95780601f1061077e576101008083540402835291602001916107a9565b820191906000526020600020905b81548152906001019060200180831161078c57829003601f168201915b50505050509080600a0180546107be90610e7a565b80601f01602080910402602001604051908101604052809291908181526020018280546107ea90610e7a565b80156108375780601f1061080c57610100808354040283529160200191610837565b820191906000526020600020905b81548152906001019060200180831161081a57829003601f168201915b50505050509080600b01805461084c90610e7a565b80601f016020809104026020016040519081016040528092919081815260200182805461087890610e7a565b80156108c55780601f1061089a576101008083540402835291602001916108c5565b820191906000526020600020905b8154815290600101906020018083116108a857829003601f168201915b505050505090508c565b60005481565b8280546108e190610e7a565b90600052602060002090601f016020900481019282610903576000855561094a565b82601f1061091c57805160ff191683800117855561094a565b8280016001018555821561094a579182015b8281111561094957825182559160200191906001019061092e565b5b509050610957919061095b565b5090565b5b8082111561097457600081600090555060010161095c565b5090565b600061098b61098684610de1565b610dbc565b9050828152602081018484840111156109a7576109a6610fb8565b5b6109b2848285610e38565b509392505050565b600082601f8301126109cf576109ce610fb3565b5b81356109df848260208601610978565b91505092915050565b6000813590506109f781610fd8565b92915050565b60008060008060008060008060008060006101608c8e031215610a2357610a22610fc2565b5b60008c013567ffffffffffffffff811115610a4157610a40610fbd565b5b610a4d8e828f016109ba565b9b505060208c013567ffffffffffffffff811115610a6e57610a6d610fbd565b5b610a7a8e828f016109ba565b9a505060408c013567ffffffffffffffff811115610a9b57610a9a610fbd565b5b610aa78e828f016109ba565b99505060608c013567ffffffffffffffff811115610ac857610ac7610fbd565b5b610ad48e828f016109ba565b98505060808c013567ffffffffffffffff811115610af557610af4610fbd565b5b610b018e828f016109ba565b97505060a08c013567ffffffffffffffff811115610b2257610b21610fbd565b5b610b2e8e828f016109ba565b96505060c08c013567ffffffffffffffff811115610b4f57610b4e610fbd565b5b610b5b8e828f016109ba565b95505060e08c013567ffffffffffffffff811115610b7c57610b7b610fbd565b5b610b888e828f016109ba565b9450506101008c013567ffffffffffffffff811115610baa57610ba9610fbd565b5b610bb68e828f016109ba565b9350506101208c013567ffffffffffffffff811115610bd857610bd7610fbd565b5b610be48e828f016109ba565b9250506101408c013567ffffffffffffffff811115610c0657610c05610fbd565b5b610c128e828f016109ba565b9150509295989b509295989b9093969950565b600060208284031215610c3b57610c3a610fc2565b5b6000610c49848285016109e8565b91505092915050565b6000610c5d82610e12565b610c678185610e1d565b9350610c77818560208601610e47565b610c8081610fc7565b840191505092915050565b610c9481610e2e565b82525050565b6000602082019050610caf6000830184610c8b565b92915050565b600061018082019050610ccb600083018f610c8b565b8181036020830152610cdd818e610c52565b90508181036040830152610cf1818d610c52565b90508181036060830152610d05818c610c52565b90508181036080830152610d19818b610c52565b905081810360a0830152610d2d818a610c52565b905081810360c0830152610d418189610c52565b905081810360e0830152610d558188610c52565b9050818103610100830152610d6a8187610c52565b9050818103610120830152610d7f8186610c52565b9050818103610140830152610d948185610c52565b9050818103610160830152610da98184610c52565b90509d9c50505050505050505050505050565b6000610dc6610dd7565b9050610dd28282610eac565b919050565b6000604051905090565b600067ffffffffffffffff821115610dfc57610dfb610f84565b5b610e0582610fc7565b9050602081019050919050565b600081519050919050565b600082825260208201905092915050565b6000819050919050565b82818337600083830152505050565b60005b83811015610e65578082015181840152602081019050610e4a565b83811115610e74576000848401525b50505050565b60006002820490506001821680610e9257607f821691505b60208210811415610ea657610ea5610f55565b5b50919050565b610eb582610fc7565b810181811067ffffffffffffffff82111715610ed457610ed3610f84565b5b80604052505050565b6000610ee882610e2e565b91507fffffffffffffffffffffffffffffffffffffffffffffffffffffffffffffffff821415610f1b57610f1a610f26565b5b600182019050919050565b7f4e487b7100000000000000000000000000000000000000000000000000000000600052601160045260246000fd5b7f4e487b7100000000000000000000000000000000000000000000000000000000600052602260045260246000fd5b7f4e487b7100000000000000000000000000000000000000000000000000000000600052604160045260246000fd5b600080fd5b600080fd5b600080fd5b600080fd5b6000601f19601f8301169050919050565b610fe181610e2e565b8114610fec57600080fd5b5056fea26469706673582212205d8787e2b6a9f7cfd73103551f077a303c3a4a14f0da0d87843905b2769f07e964736f6c63430008060033",
  "immutableReferences": {},
  "source": "// SPDX-License-Identifier: MIT\r\npragma solidity ^0.8.6;\r\n\r\ncontract CertificadosContract{ \r\n\r\n    uint public certificadoCounter = 0; \r\n\r\n    constructor(){\r\n        createCertificado(\"Huayta\", \"Guerrero\", \"73176898\", \"Renzo\", \"Python\", \"15\", \"Sistemas UNI\", \"\", \"\", \"APROBADO\", \"11/30/2021-12/11/2021\");\r\n    }\r\n\r\n    // struct es crear un nuevo tipo de dato\r\n    struct Certificado {\r\n        uint256 id;\r\n        string ap_materno;\r\n        string ap_paterno;\r\n        string dni;\r\n        string nombres;\r\n        string nomb_curso;\r\n        string nota;\r\n        string institucion;\r\n        string link;\r\n        string hash_image;\r\n        string condicion;\r\n        string fecha_inicio_fin;\r\n    }\r\n    \r\n    // mapping: conjunto de datos que tienen un par clave-valor ; clave puede ser cualquier tipo de dato\r\n    mapping (uint256 => Certificado) public certificados; \r\n\r\n    function createCertificado(string memory _ap_materno, string memory _ap_paterno, string memory _dni, string memory _nombres, string memory _nomb_curso,string memory _nota,string memory _institucion, string memory _link, string memory _hash_image, string memory _condicion, string memory _fecha_inicio_fin) public{\r\n        certificadoCounter++;\r\n        certificados[certificadoCounter] = Certificado(certificadoCounter,_ap_materno,_ap_paterno,_dni,_nombres,_nomb_curso,_nota,_institucion,_link,_hash_image,_condicion,_fecha_inicio_fin);\r\n        \r\n    }\r\n}\r\n",
  "sourcePath": "C:\\Users\\titos\\Github\\Blockchain-Diplomas\\contracts\\CertificadosContract.sol",
  "compiler": {
    "name": "solc",
    "version": "0.8.6+commit.11564f7e.Emscripten.clang"
  },
  "schemaVersion": "3.4.4",
  "updatedAt": "2022-01-30T07:55:09.488Z",
  "networkType": "ethereum",
  "devdoc": {
    "kind": "dev",
    "methods": {},
    "version": 1
  },
  "userdoc": {
    "kind": "user",
    "methods": {},
    "version": 1
  }
}