{
  "contractName": "CertificadosContract",
  "abi": [
    {
      "inputs": [],
      "stateMutability": "nonpayable",
      "type": "constructor"
    },
    {
      "anonymous": false,
      "inputs": [
        {
          "indexed": false,
          "internalType": "uint256",
          "name": "id",
          "type": "uint256"
        },
        {
          "indexed": false,
          "internalType": "string",
          "name": "ap_materno",
          "type": "string"
        },
        {
          "indexed": false,
          "internalType": "string",
          "name": "ap_paterno",
          "type": "string"
        },
        {
          "indexed": false,
          "internalType": "string",
          "name": "dni",
          "type": "string"
        },
        {
          "indexed": false,
          "internalType": "string",
          "name": "nombres",
          "type": "string"
        },
        {
          "indexed": false,
          "internalType": "string",
          "name": "nomb_curso",
          "type": "string"
        },
        {
          "indexed": false,
          "internalType": "string",
          "name": "nota",
          "type": "string"
        },
        {
          "indexed": false,
          "internalType": "string",
          "name": "institucion",
          "type": "string"
        },
        {
          "indexed": false,
          "internalType": "string",
          "name": "link",
          "type": "string"
        },
        {
          "indexed": false,
          "internalType": "string",
          "name": "hash_image",
          "type": "string"
        },
        {
          "indexed": false,
          "internalType": "string",
          "name": "condicion",
          "type": "string"
        },
        {
          "indexed": false,
          "internalType": "string",
          "name": "fecha_inicio_fin",
          "type": "string"
        }
      ],
      "name": "CertificadoCreated",
      "type": "event"
    },
    {
      "inputs": [],
      "name": "certificadoCounter",
      "outputs": [
        {
          "internalType": "uint256",
          "name": "",
          "type": "uint256"
        }
      ],
      "stateMutability": "view",
      "type": "function",
      "constant": true
    },
    {
      "inputs": [
        {
          "internalType": "uint256",
          "name": "",
          "type": "uint256"
        }
      ],
      "name": "certificados",
      "outputs": [
        {
          "internalType": "uint256",
          "name": "id",
          "type": "uint256"
        },
        {
          "internalType": "string",
          "name": "ap_materno",
          "type": "string"
        },
        {
          "internalType": "string",
          "name": "ap_paterno",
          "type": "string"
        },
        {
          "internalType": "string",
          "name": "dni",
          "type": "string"
        },
        {
          "internalType": "string",
          "name": "nombres",
          "type": "string"
        },
        {
          "internalType": "string",
          "name": "nomb_curso",
          "type": "string"
        },
        {
          "internalType": "string",
          "name": "nota",
          "type": "string"
        },
        {
          "internalType": "string",
          "name": "institucion",
          "type": "string"
        },
        {
          "internalType": "string",
          "name": "link",
          "type": "string"
        },
        {
          "internalType": "string",
          "name": "hash_image",
          "type": "string"
        },
        {
          "internalType": "string",
          "name": "condicion",
          "type": "string"
        },
        {
          "internalType": "string",
          "name": "fecha_inicio_fin",
          "type": "string"
        }
      ],
      "stateMutability": "view",
      "type": "function",
      "constant": true
    },
    {
      "inputs": [
        {
          "internalType": "string",
          "name": "_ap_materno",
          "type": "string"
        },
        {
          "internalType": "string",
          "name": "_ap_paterno",
          "type": "string"
        },
        {
          "internalType": "string",
          "name": "_dni",
          "type": "string"
        },
        {
          "internalType": "string",
          "name": "_nombres",
          "type": "string"
        },
        {
          "internalType": "string",
          "name": "_nomb_curso",
          "type": "string"
        },
        {
          "internalType": "string",
          "name": "_nota",
          "type": "string"
        },
        {
          "internalType": "string",
          "name": "_institucion",
          "type": "string"
        },
        {
          "internalType": "string",
          "name": "_link",
          "type": "string"
        },
        {
          "internalType": "string",
          "name": "_hash_image",
          "type": "string"
        },
        {
          "internalType": "string",
          "name": "_condicion",
          "type": "string"
        },
        {
          "internalType": "string",
          "name": "_fecha_inicio_fin",
          "type": "string"
        }
      ],
      "name": "createCertificado",
      "outputs": [],
      "stateMutability": "nonpayable",
      "type": "function"
    }
  ],
  "bytecode": "0x6080604052600080553480156200001557600080fd5b506200022c6040518060400160405280600681526020017f48756179746100000000000000000000000000000000000000000000000000008152506040518060400160405280600881526020017f477565727265726f0000000000000000000000000000000000000000000000008152506040518060400160405280600881526020017f37333137363839380000000000000000000000000000000000000000000000008152506040518060400160405280600581526020017f52656e7a6f0000000000000000000000000000000000000000000000000000008152506040518060400160405280600681526020017f507974686f6e00000000000000000000000000000000000000000000000000008152506040518060400160405280600281526020017f31350000000000000000000000000000000000000000000000000000000000008152506040518060400160405280600c81526020017f53697374656d617320554e49000000000000000000000000000000000000000081525060405180602001604052806000815250604051806020016040528060008152506040518060400160405280600881526020017f4150524f4241444f0000000000000000000000000000000000000000000000008152506040518060400160405280601581526020017f31312f33302f323032312d31322f31312f3230323100000000000000000000008152506200023260201b60201c565b620007e7565b60008081548092919062000246906200072a565b919050555060405180610180016040528060005481526020018c81526020018b81526020018a8152602001898152602001888152602001878152602001868152602001858152602001848152602001838152602001828152506001600080548152602001908152602001600020600082015181600001556020820151816001019080519060200190620002db92919062000477565b506040820151816002019080519060200190620002fa92919062000477565b5060608201518160030190805190602001906200031992919062000477565b5060808201518160040190805190602001906200033892919062000477565b5060a08201518160050190805190602001906200035792919062000477565b5060c08201518160060190805190602001906200037692919062000477565b5060e08201518160070190805190602001906200039592919062000477565b50610100820151816008019080519060200190620003b592919062000477565b50610120820151816009019080519060200190620003d592919062000477565b5061014082015181600a019080519060200190620003f592919062000477565b5061016082015181600b0190805190602001906200041592919062000477565b509050507fe0f4ccb8164bd2bc927c2fc2b1fbf12720134896038c068f1e976e699b19fde56000548c8c8c8c8c8c8c8c8c8c8c604051620004629c9b9a9998979695949392919062000579565b60405180910390a15050505050505050505050565b8280546200048590620006f4565b90600052602060002090601f016020900481019282620004a95760008555620004f5565b82601f10620004c457805160ff1916838001178555620004f5565b82800160010185558215620004f5579182015b82811115620004f4578251825591602001919060010190620004d7565b5b50905062000504919062000508565b5090565b5b808211156200052357600081600090555060010162000509565b5090565b6000620005348262000698565b620005408185620006a3565b935062000552818560208601620006be565b6200055d81620007d6565b840191505092915050565b6200057381620006b4565b82525050565b60006101808201905062000591600083018f62000568565b8181036020830152620005a5818e62000527565b90508181036040830152620005bb818d62000527565b90508181036060830152620005d1818c62000527565b90508181036080830152620005e7818b62000527565b905081810360a0830152620005fd818a62000527565b905081810360c083015262000613818962000527565b905081810360e083015262000629818862000527565b905081810361010083015262000640818762000527565b905081810361012083015262000657818662000527565b90508181036101408301526200066e818562000527565b905081810361016083015262000685818462000527565b90509d9c50505050505050505050505050565b600081519050919050565b600082825260208201905092915050565b6000819050919050565b60005b83811015620006de578082015181840152602081019050620006c1565b83811115620006ee576000848401525b50505050565b600060028204905060018216806200070d57607f821691505b60208210811415620007245762000723620007a7565b5b50919050565b60006200073782620006b4565b91507fffffffffffffffffffffffffffffffffffffffffffffffffffffffffffffffff8214156200076d576200076c62000778565b5b600182019050919050565b7f4e487b7100000000000000000000000000000000000000000000000000000000600052601160045260246000fd5b7f4e487b7100000000000000000000000000000000000000000000000000000000600052602260045260246000fd5b6000601f19601f8301169050919050565b61107480620007f76000396000f3fe608060405234801561001057600080fd5b50600436106100415760003560e01c80637b2178ee146100465780638e59bb4814610062578063b9b00b6f1461009d575b600080fd5b610060600480360381019061005b9190610a4c565b6100bb565b005b61007c60048036038101906100779190610c74565b6102e6565b6040516100949c9b9a99989796959493929190610d04565b60405180910390f35b6100a561091e565b6040516100b29190610ce9565b60405180910390f35b6000808154809291906100cd90610f2c565b919050555060405180610180016040528060005481526020018c81526020018b81526020018a8152602001898152602001888152602001878152602001868152602001858152602001848152602001838152602001828152506001600080548152602001908152602001600020600082015181600001556020820151816001019080519060200190610160929190610924565b50604082015181600201908051906020019061017d929190610924565b50606082015181600301908051906020019061019a929190610924565b5060808201518160040190805190602001906101b7929190610924565b5060a08201518160050190805190602001906101d4929190610924565b5060c08201518160060190805190602001906101f1929190610924565b5060e082015181600701908051906020019061020e929190610924565b5061010082015181600801908051906020019061022c929190610924565b5061012082015181600901908051906020019061024a929190610924565b5061014082015181600a019080519060200190610268929190610924565b5061016082015181600b019080519060200190610286929190610924565b509050507fe0f4ccb8164bd2bc927c2fc2b1fbf12720134896038c068f1e976e699b19fde56000548c8c8c8c8c8c8c8c8c8c8c6040516102d19c9b9a99989796959493929190610d04565b60405180910390a15050505050505050505050565b600160205280600052604060002060009150905080600001549080600101805461030f90610ec9565b80601f016020809104026020016040519081016040528092919081815260200182805461033b90610ec9565b80156103885780601f1061035d57610100808354040283529160200191610388565b820191906000526020600020905b81548152906001019060200180831161036b57829003601f168201915b50505050509080600201805461039d90610ec9565b80601f01602080910402602001604051908101604052809291908181526020018280546103c990610ec9565b80156104165780601f106103eb57610100808354040283529160200191610416565b820191906000526020600020905b8154815290600101906020018083116103f957829003601f168201915b50505050509080600301805461042b90610ec9565b80601f016020809104026020016040519081016040528092919081815260200182805461045790610ec9565b80156104a45780601f10610479576101008083540402835291602001916104a4565b820191906000526020600020905b81548152906001019060200180831161048757829003601f168201915b5050505050908060040180546104b990610ec9565b80601f01602080910402602001604051908101604052809291908181526020018280546104e590610ec9565b80156105325780601f1061050757610100808354040283529160200191610532565b820191906000526020600020905b81548152906001019060200180831161051557829003601f168201915b50505050509080600501805461054790610ec9565b80601f016020809104026020016040519081016040528092919081815260200182805461057390610ec9565b80156105c05780601f10610595576101008083540402835291602001916105c0565b820191906000526020600020905b8154815290600101906020018083116105a357829003601f168201915b5050505050908060060180546105d590610ec9565b80601f016020809104026020016040519081016040528092919081815260200182805461060190610ec9565b801561064e5780601f106106235761010080835404028352916020019161064e565b820191906000526020600020905b81548152906001019060200180831161063157829003601f168201915b50505050509080600701805461066390610ec9565b80601f016020809104026020016040519081016040528092919081815260200182805461068f90610ec9565b80156106dc5780601f106106b1576101008083540402835291602001916106dc565b820191906000526020600020905b8154815290600101906020018083116106bf57829003601f168201915b5050505050908060080180546106f190610ec9565b80601f016020809104026020016040519081016040528092919081815260200182805461071d90610ec9565b801561076a5780601f1061073f5761010080835404028352916020019161076a565b820191906000526020600020905b81548152906001019060200180831161074d57829003601f168201915b50505050509080600901805461077f90610ec9565b80601f01602080910402602001604051908101604052809291908181526020018280546107ab90610ec9565b80156107f85780601f106107cd576101008083540402835291602001916107f8565b820191906000526020600020905b8154815290600101906020018083116107db57829003601f168201915b50505050509080600a01805461080d90610ec9565b80601f016020809104026020016040519081016040528092919081815260200182805461083990610ec9565b80156108865780601f1061085b57610100808354040283529160200191610886565b820191906000526020600020905b81548152906001019060200180831161086957829003601f168201915b50505050509080600b01805461089b90610ec9565b80601f01602080910402602001604051908101604052809291908181526020018280546108c790610ec9565b80156109145780601f106108e957610100808354040283529160200191610914565b820191906000526020600020905b8154815290600101906020018083116108f757829003601f168201915b505050505090508c565b60005481565b82805461093090610ec9565b90600052602060002090601f0160209004810192826109525760008555610999565b82601f1061096b57805160ff1916838001178555610999565b82800160010185558215610999579182015b8281111561099857825182559160200191906001019061097d565b5b5090506109a691906109aa565b5090565b5b808211156109c35760008160009055506001016109ab565b5090565b60006109da6109d584610e30565b610e0b565b9050828152602081018484840111156109f6576109f5611007565b5b610a01848285610e87565b509392505050565b600082601f830112610a1e57610a1d611002565b5b8135610a2e8482602086016109c7565b91505092915050565b600081359050610a4681611027565b92915050565b60008060008060008060008060008060006101608c8e031215610a7257610a71611011565b5b60008c013567ffffffffffffffff811115610a9057610a8f61100c565b5b610a9c8e828f01610a09565b9b505060208c013567ffffffffffffffff811115610abd57610abc61100c565b5b610ac98e828f01610a09565b9a505060408c013567ffffffffffffffff811115610aea57610ae961100c565b5b610af68e828f01610a09565b99505060608c013567ffffffffffffffff811115610b1757610b1661100c565b5b610b238e828f01610a09565b98505060808c013567ffffffffffffffff811115610b4457610b4361100c565b5b610b508e828f01610a09565b97505060a08c013567ffffffffffffffff811115610b7157610b7061100c565b5b610b7d8e828f01610a09565b96505060c08c013567ffffffffffffffff811115610b9e57610b9d61100c565b5b610baa8e828f01610a09565b95505060e08c013567ffffffffffffffff811115610bcb57610bca61100c565b5b610bd78e828f01610a09565b9450506101008c013567ffffffffffffffff811115610bf957610bf861100c565b5b610c058e828f01610a09565b9350506101208c013567ffffffffffffffff811115610c2757610c2661100c565b5b610c338e828f01610a09565b9250506101408c013567ffffffffffffffff811115610c5557610c5461100c565b5b610c618e828f01610a09565b9150509295989b509295989b9093969950565b600060208284031215610c8a57610c89611011565b5b6000610c9884828501610a37565b91505092915050565b6000610cac82610e61565b610cb68185610e6c565b9350610cc6818560208601610e96565b610ccf81611016565b840191505092915050565b610ce381610e7d565b82525050565b6000602082019050610cfe6000830184610cda565b92915050565b600061018082019050610d1a600083018f610cda565b8181036020830152610d2c818e610ca1565b90508181036040830152610d40818d610ca1565b90508181036060830152610d54818c610ca1565b90508181036080830152610d68818b610ca1565b905081810360a0830152610d7c818a610ca1565b905081810360c0830152610d908189610ca1565b905081810360e0830152610da48188610ca1565b9050818103610100830152610db98187610ca1565b9050818103610120830152610dce8186610ca1565b9050818103610140830152610de38185610ca1565b9050818103610160830152610df88184610ca1565b90509d9c50505050505050505050505050565b6000610e15610e26565b9050610e218282610efb565b919050565b6000604051905090565b600067ffffffffffffffff821115610e4b57610e4a610fd3565b5b610e5482611016565b9050602081019050919050565b600081519050919050565b600082825260208201905092915050565b6000819050919050565b82818337600083830152505050565b60005b83811015610eb4578082015181840152602081019050610e99565b83811115610ec3576000848401525b50505050565b60006002820490506001821680610ee157607f821691505b60208210811415610ef557610ef4610fa4565b5b50919050565b610f0482611016565b810181811067ffffffffffffffff82111715610f2357610f22610fd3565b5b80604052505050565b6000610f3782610e7d565b91507fffffffffffffffffffffffffffffffffffffffffffffffffffffffffffffffff821415610f6a57610f69610f75565b5b600182019050919050565b7f4e487b7100000000000000000000000000000000000000000000000000000000600052601160045260246000fd5b7f4e487b7100000000000000000000000000000000000000000000000000000000600052602260045260246000fd5b7f4e487b7100000000000000000000000000000000000000000000000000000000600052604160045260246000fd5b600080fd5b600080fd5b600080fd5b600080fd5b6000601f19601f8301169050919050565b61103081610e7d565b811461103b57600080fd5b5056fea2646970667358221220970795c4fbdb40c115d1fce06e928bb242c9c9a447d44e386401d7dfaeda908f64736f6c63430008060033",
  "immutableReferences": {},
  "source": "// SPDX-License-Identifier: MIT\r\npragma solidity ^0.8.6;\r\n\r\ncontract CertificadosContract{ \r\n\r\n    uint public certificadoCounter = 0; \r\n\r\n    constructor(){\r\n        createCertificado(\"Huayta\", \"Guerrero\", \"73176898\", \"Renzo\", \"Python\", \"15\", \"Sistemas UNI\", \"\", \"\", \"APROBADO\", \"11/30/2021-12/11/2021\");\r\n    } \r\n\r\n    // event especifica lo que se va devolver cuando se cree una tarea\r\n    event CertificadoCreated(\r\n        uint id,\r\n        string ap_materno,\r\n        string ap_paterno,\r\n        string dni,\r\n        string nombres,\r\n        string nomb_curso,\r\n        string nota,\r\n        string institucion,\r\n        string link,\r\n        string hash_image,\r\n        string condicion,\r\n        string fecha_inicio_fin\r\n    );\r\n\r\n    // struct es crear un nuevo tipo de dato\r\n    struct Certificado {\r\n        uint256 id;\r\n        string ap_materno;\r\n        string ap_paterno;\r\n        string dni;\r\n        string nombres;\r\n        string nomb_curso;\r\n        string nota;\r\n        string institucion;\r\n        string link;\r\n        string hash_image;\r\n        string condicion;\r\n        string fecha_inicio_fin;\r\n    }\r\n    \r\n    // mapping: conjunto de datos que tienen un par clave-valor ; clave puede ser cualquier tipo de dato\r\n    mapping (uint256 => Certificado) public certificados; \r\n\r\n    function createCertificado(string memory _ap_materno, string memory _ap_paterno, string memory _dni, string memory _nombres, string memory _nomb_curso,string memory _nota,string memory _institucion, string memory _link, string memory _hash_image, string memory _condicion, string memory _fecha_inicio_fin) public{\r\n        certificadoCounter++;\r\n        certificados[certificadoCounter] = Certificado(certificadoCounter,_ap_materno,_ap_paterno,_dni,_nombres,_nomb_curso,_nota,_institucion,_link,_hash_image,_condicion,_fecha_inicio_fin);\r\n        emit CertificadoCreated(certificadoCounter, _ap_materno, _ap_paterno, _dni, _nombres, _nomb_curso, _nota, _institucion, _link, _hash_image, _condicion, _fecha_inicio_fin);\r\n    }\r\n}\r\n",
  "sourcePath": "C:\\Users\\titos\\Github\\Blockchain-Diplomas\\contracts\\CertificadosContract.sol",
  "compiler": {
    "name": "solc",
    "version": "0.8.6+commit.11564f7e.Emscripten.clang"
  },
  "schemaVersion": "3.4.4",
  "updatedAt": "2022-01-31T07:37:06.533Z",
  "networkType": "ethereum",
  "devdoc": {
    "kind": "dev",
    "methods": {},
    "version": 1
  },
  "userdoc": {
    "kind": "user",
    "methods": {},
    "version": 1
  }
}